:100000000C94EC000C9414010C9414010C94140145
:100010000C9414010C9414010C9414010C9414010C
:100020000C9414010C9414010C9477040C94E904BE
:100030000C9414010C9414010C9414010C941401EC
:100040000C9414010C9414010C9414010C941401DC
:100050000C9414010C9414010C9414010C942607B4
:100060000C9414010C9414010C9414010C941401BC
:100070000C9414010C9414010C9414010C941401AC
:100080000C9414010C9414010C9414010C9414019C
:100090000C9414010C9414010C9414010C9414018C
:1000A0000C9414010C9414010C9414013C013F01B4
:1000B0002E013201360160016001600143014701F8
:1000C0004B015101550160015B0107060504010068
:1000D000080A0B0C0D09080B0002020201000904BA
:1000E00000000102020000052400100105240101A6
:1000F00001042402060524060001070581031000FF
:100100004009040100020A00000007050202400045
:10011000000705830240000004030904417264756E
:10012000696E6F204C4C430041726475696E6F209C
:100130004C656F6E6172646F001201000200000076
:10014000404123368000010102030112010002EF49
:10015000020140412336800001010203010000003A
:1001600000240027002A002D003000000000002598
:100170000028002B002E00310004040404040304B2
:100180000502020202040302020202060606060635
:100190000604040202020404040802011040804024
:1001A000102040804080080204018040201002019D
:1001B000108010204040200000000200090F0000C5
:1001C000030401000C00000000000000000000001B
:1001D000000000000000210911241FBECFEFDAE06B
:1001E000DEBFCDBF11E0A0E0B1E0EEE5F6E102C078
:1001F00005900D92A834B107D9F721E0A8E4B1E049
:1002000001C01D92A83BB207E1F710E0CCEED0E0B0
:1002100004C02197FE010E945809CB3ED107C9F7BF
:100220000E9470070C942D0B0C940000ECEBF1E095
:100230004491EDE9F1E02491EEE7F1E09491992306
:1002400009F451C04423E1F150E0FA013197EF3055
:10025000F105B0F5EA5AFF4F0C945809309180002F
:100260003F7707C0309180003F7D03C03091800010
:10027000377F3093800024C034B53F7702C034B557
:100280003F7D34BD1DC0309190003F7707C0309155
:1002900090003F7D03C030919000377F30939000F5
:1002A0000FC03091C0003F7703C03091C0003F7D48
:1002B0003093C00005C03091C200377F3093C20038
:1002C000E92FF0E0EE0FFF1FE559FE4FA591B49125
:1002D0009FB7F894EC91811103C020952E2301C0A3
:1002E0002E2B2C939FBF0895FC01809167018111F3
:1002F00003C08FEF9FEF08959FB7F89482E080933B
:10030000E9002091F20030E01216130614F421E007
:1003100030E02115310559F0289884E68093660174
:100320008091F10080838091F200882319F09FBFB3
:10033000C90108958BE68093E800F9CF80915E01B2
:1003400081110DC082E080935A0184E080935B01AB
:1003500010925D0110925C0181E080935E018AE55C
:1003600091E00895409150015091510120914E012A
:1003700030914F0142175307B4F49091E800957003
:10038000E1F39091E80092FD19C08093F100809113
:1003900050019091510101968F739927892B19F47F
:1003A0008EEF8093E8008091500190915101019669
:1003B000909351018093500181E0089580E0089569
:1003C000CF92DF92EF92FF920F931F93CF93DF9321
:1003D0001F92CDB7DEB7182F062FE42E862F880F79
:1003E0008E5F99830E94B20183E00E94B201F12ED8
:1003F000C12E9981D92E8C2D8F19801798F4F60172
:10040000E7FE02C0849101C080810E94B201182FD2
:1004100080E00E94B2018123FFEFCF1ADF0A811131
:10042000EACF01C081E00F90DF91CF911F910F9132
:10043000FF90EF90DF90CF900895DF92EF92FF92C0
:100440000F931F93CF93DF93D82E8A017B01E40E85
:10045000F51EEB01CE15DF0571F0D7FE03C0FE01DE
:10046000849101C088810E94B20121968111F2CF4E
:100470008FEF9FEF01C0C801DF91CF911F910F91C6
:10048000FF90EF90DF9008950F931F93CF93DF932A
:100490001F92CDB7DEB782E0898342E450E066ED7B
:1004A00070E080E80E941D020E949E01DC0112960D
:1004B0000D911C9113970115110569F0D801ED916B
:1004C000FC910280F381E02DBE016F5F7F4FC80178
:1004D000099597FF07C089810F90DF91CF911F91F8
:1004E0000F910895F80100851185E5CF615030F036
:1004F0002091F100FC0120830196F8CF289884E632
:10050000809366010895CF92DF92EF92FF920F934E
:100510001F93CF93DF936C017A018B01C0E0D0E091
:10052000CE15DF0589F0D8016D918D01D601ED91D1
:10053000FC910190F081E02DC6010995892B11F401
:100540007E0102C02196ECCFC701DF91CF911F91B0
:100550000F91FF90EF90DF90CF900895CF93DF93AE
:100560001F92CDB7DEB76983DC01ED91FC9102806B
:10057000F381E02D41E050E0BE016F5F7F4F0995B0
:100580000F90DF91CF91089583E08093E9008091EF
:10059000F200882319F08AE38093E8000895CF934E
:1005A000DF931F92CDB7DEB7FC018485958597FD5B
:1005B00005C02FEF3FEF358724870BC0CE01019692
:1005C0000E947401019719F4898190E002C08FEFB5
:1005D0009FEF0F90DF91CF9108950F931F93CF93CB
:1005E000DF931F92CDB7DEB78C01FC018485958522
:1005F00097FF0EC0CE0101960E947401019719F475
:10060000298130E002C02FEF3FEFF80135872487C2
:10061000F801848595850F90DF91CF911F910F91FF
:100620000895FC018485958597FD0BC09FB7F894CC
:1006300082E08093E9008091F2009FBF90E00196F4
:1006400008959FB7F89482E08093E9008091F200CA
:100650009FBF90E00895823108F08251E82FF0E0CA
:10066000E653FF4FE49180917B00E3FB222720F9C2
:1006700030E095E0220F331F9A95E1F78F7D282B0C
:1006800020937B00E770E064E0937C0080917A0027
:10069000806480937A0080917A0086FDFCCF8091FF
:1006A00078002091790090E0922B08953FB7F8945C
:1006B0008091490190914A01A0914B01B0914C0168
:1006C00026B5A89B05C02F3F19F00196A11DB11DAD
:1006D0003FBFBA2FA92F982F8827820F911DA11DE8
:1006E000B11DBC01CD0142E0660F771F881F991F25
:1006F0004A95D1F70895CF92DF92EF92FF920E9430
:1007000056036B017C010E945603DC01CB018C195E
:100710009D09AE09BF09883E9340A105B10598F334
:10072000FF90EF90DF90CF9008958F929F92AF92BD
:10073000BF92CF92DF92EF92FF920F931F93CF93CE
:10074000DF935C016B018A0180910B01882309F41E
:1007500059C080916701882309F454C080915401E5
:1007600080FF05C08091E00082608093E000E80196
:100770008AEFF82E93E0E92E2FE3822E3AE3932EB0
:100780002097C9F18FB7F894E092E9009091E800C2
:1007900095FF06C09091F200282D291B922F01C0D1
:1007A00090E08FBF911106C0FA94FF2059F10E948A
:1007B0007B03E6CF292F30E0C217D3070CF49C2F20
:1007C0008FB7F894E092E9002091E80025FF11C06E
:1007D000292F30E0C21BD30BF601915020F041913C
:1007E0004093F100FACFC20ED31E9091E80095FF1E
:1007F00013C08FBFC5CF5D9884E680935201101659
:10080000110644F081E090E0F5019383828380E05B
:1008100090E005C0C80103C09092E800EACFDF91E4
:10082000CF911F910F91FF90EF90DF90CF90BF90ED
:10083000AF909F908F900895BC01009791F0FC01BC
:1008400001900020E9F73197AF01481B590BE09167
:100850006801F09169010280F381E02D88E691E062
:10086000099480E090E008958F929F92AF92BF929A
:100870000F931F93CF93DF93CDB7DEB7A1970FB63A
:10088000F894DEBF0FBECDBF19A2423008F44AE093
:100890008E010F5D1F4F842E912CA12CB12CA50130
:1008A00094010E943609E62FB901CA0101501109CD
:1008B000EA3014F4E05D01C0E95CD801EC93232B2D
:1008C000242B252B61F7C8010E941C04A1960FB6AA
:1008D000F894DEBF0FBECDBFDF91CF911F910F9176
:1008E000BF90AF909F908F9008950E94280B1F9209
:1008F0000F920FB60F9211248F939F938091E10076
:100900009091E100937F9093E10083FF0FC01092DC
:10091000E90091E09093EB001092EC0092E3909349
:10092000ED001092670198E09093F00082FF20C0E4
:1009300093E09093E9009091F200992319F09AE3E3
:100940009093E80090915201992339F090915201CF
:10095000915090935201992389F1909166019923C6
:1009600039F090916601915090936601992341F17D
:1009700084FF10C08091E2008E7E81608093E2004F
:100980008091E1008F7E8093E100809154018E7E02
:10099000806111C080FF16C08091E2008E7E806170
:1009A0008093E2008091E1008E7E8093E10080914F
:1009B00054018E7E81608093540104C05D9ACDCF36
:1009C000289AD6CF9F918F910F900FBE0F901F90B6
:1009D00018951F920F920FB60F921124CF92DF92AB
:1009E000EF92FF920F931F932F933F934F935F9339
:1009F0006F937F938F939F93AF93BF93EF93FF93E7
:100A0000CF93DF93CDB7DEB76C97DEBFCDBF10922B
:100A1000E9008091E80083FFFAC168E0CE014596C5
:100A20000E94760282EF8093E8008D8987FF05C0DF
:100A30009091E80090FFFCCF03C09EEF9093E800F8
:100A4000982F907609F0C6C09E892F89188D911134
:100A50000CC0803829F4809155018093F10002C0C8
:100A60001092F1001092F10047C1422F50E0512B3B
:100A7000913051F4811140C14130510509F03CC120
:100A8000809155018D7F0BC0933061F4811134C189
:100A90004130510509F030C1809155018260809349
:100AA00055012AC1953041F48091E80080FFFCCFC8
:100AB00020682093E30020C1963009F05FC0EB8CE2
:100AC000FC8C1092E90010925101109250011230EA
:100AD00091F510924F0110924E010E94440299E04C
:100AE000BE016F5F7F4FDB01E92F1D92EA95E9F7A9
:100AF00099831A8391E09E8390EA98879AEF998769
:100B00002091500130915101275F3F4F3C832B834F
:100B10008D831092E9001092510110925001F092D1
:100B20004F01E0924E0149E050E080E00E941D023A
:100B30000E944402E1C0F0924F01E0924E010E94F7
:100B40009E01DC011296ED90FC901397E114F104E4
:100B500009F4C0C0D701ED91FC910480F581E02D2E
:100B6000BE016B5E7F4FC7010995009719F00CF02D
:100B7000C3C0C6C0F701E084F184E8CF973009F420
:100B8000BFC0983021F481E08093F100B5C0993066
:100B900009F0B2C0837009F0B3C0EDE1F1E081E08B
:100BA00021E036E39081992361F08093E90020935E
:100BB000EB0091919093EC003093ED008F5F8730C4
:100BC00089F78EE78093EA001092EA008F8980937C
:100BD000670192C08B8D9C8D1092E900109251019B
:100BE0001092500190934F0180934E01898D811195
:100BF00056C08E899D89913A59F4813209F080C09E
:100C000047E050E064E071E080E00E941D0274C0A3
:100C1000913209F075C0833289F4888D90E0982F65
:100C200088272F89822BA0E0B0E080930001909369
:100C30000101A0930201B09303015EC0803269F408
:100C40008091E80082FFFCCF67E084E091E00E94A1
:100C500076028BEF8093E80006C0823209F04CC028
:100C60008F8980930B0180915301882319F0EEEF57
:100C7000FAE002C0E0E0F8E0809104019091050103
:100C8000A0910601B0910701803B9440A105B105F8
:100C900009F088C080910B0180FFA0C083C00E9432
:100CA0009E01DC0112960D911C91139701151105FF
:100CB00039F1D801ED91FC910190F081E02DBE0158
:100CC0006B5E7F4FC8010995811116C0F801008540
:100CD0001185ECCF1130C1F0133091F48F89882346
:100CE00009F455C08230E9F440E860E188E291E01F
:100CF0000E94E001882321F08EEF8093E80087C0F6
:100D000081E28093EB0083C08B8D9C8D089711F45A
:100D100010934D0180914D01811136C069E371E05E
:100D200038C0813029F440E86BE08CE191E0E0CFFD
:100D3000833031F70E949E01DC011296ED90FC9009
:100D400013978E010F5F1F4F6801E114F10479F0D2
:100D5000D701ED91FC910680F781E02DB801C70124
:100D60000995080F111DF701E084F184EECFD80139
:100D70001C92F60101900020E9F73197BF016C1930
:100D80007D0940E0C601B4CF6BE471E002C068E1C8
:100D900071E06115710509F4B3CFFB01449150E096
:100DA00080E833CF0FB6F894A895809160008861F1
:100DB00080936000109260000FBEA895EE3F2AE07D
:100DC000F20739F08091FE0A9091FF0A91838083A7
:100DD00093CF1092FF0A1092FE0A8ECFEE3F8AE068
:100DE000F80731F0808191819093FF0A8093FE0A89
:100DF00087E797E7918380839BE088E10FB6F894BB
:100E0000A895809360000FBE9093600075CF6C969C
:100E10000FB6F894DEBF0FBECDBFDF91CF91FF912B
:100E2000EF91BF91AF919F918F917F916F915F9162
:100E30004F913F912F911F910F91FF90EF90DF9075
:100E4000CF900F900FBE0F901F9018951F920F928A
:100E50000FB60F9211242F933F938F939F93AF93CD
:100E6000BF938091560190915701A0915801B09184
:100E700059013091480123E0230F2D3720F40196CA
:100E8000A11DB11D05C026E8230F0296A11DB11DAD
:100E9000209348018093560190935701A0935801E5
:100EA000B09359018091490190914A01A0914B0161
:100EB000B0914C010196A11DB11D80934901909301
:100EC0004A01A0934B01B0934C01BF91AF919F9108
:100ED0008F913F912F910F900FBE0F901F901895FB
:100EE000789484B5826084BD84B5816084BD85B505
:100EF000826085BD85B5816085BD80916E00816011
:100F000080936E00109281008091810082608093B6
:100F100081008091810081608093810080918000B8
:100F20008160809380008091910082608093910025
:100F30008091910081608093910080919000816008
:100F4000809390008091C10084608093C100809163
:100F5000C10082608093C1008091C1008160809354
:100F6000C1008091C30081608093C3008091C00064
:100F700082608093C0008091C20081608093C20033
:100F800080917A00846080937A0080917A008260F8
:100F900080937A0080917A00816080937A008091BA
:100FA0007A00806880937A00109267011092550150
:100FB000109254018091D70081608093D70080EA1D
:100FC0008093D80089B5806189BD89B5826089BD6B
:100FD00009B400FEFDCF0E947B038091D8008F7C76
:100FE00080618093D8008091E000807F8093E00052
:100FF0008091E1008E7E8093E1008DE08093E2009D
:10100000559A209AEEEFFFE7859194918B3F9C4D86
:1010100019F481E0809353018FEF9FEF9093750156
:10102000809374014DE9242E41E0342E0EE711E047
:10103000C0E0D0E02FB7F89480915601909157010D
:10104000A0915801B09159012FBF883E9340A1054E
:10105000B10509F0D4C082E10E942B037C0183E139
:101060000E942B035C01B701FF0C880B990B0E94B7
:10107000010A6B017C01B501BB0C880B990B0E9426
:10108000010A9B01AC01C701B6010E94B60A6B01BF
:101090007C014B015C0183E291E00E941C04A701EA
:1010A0009601C701B6010E94230B882319F088E33B
:1010B00091E01AC026013701E89477F82FEF3FEF4F
:1010C0004FE75FE7C301B2010E94230B81110FC0FC
:1010D0002FEF3FEF4FE75FE7C301B2010E94CB095B
:1010E00018162CF48CE391E00E941C0484C02FEFAE
:1010F0003FEF4FE75FE4C701B6010E94B10A18163F
:101100001CF480E491E0F0CF2FEF3FEF4FE75FEC6E
:10111000C701B6010E94CB0987FDF3CF20E030E084
:10112000A901C701B6010E94CB0987FF11C0E09158
:101130006801F09169010190F081E02D6DE288E68F
:1011400091E0099546015701B7FAB094B7F8B09409
:101150002AE037ED43EA5BE3C501B4010E945F0971
:101160004B015C010E94D0096B017C010E94FF09C8
:101170009B01AC01C501B4010E945E094B015C01F9
:101180004AE0C701B6010E943404E0916801F09181
:1011900069010190F081E02D6EE288E691E0099509
:1011A00020E030E040E251E4C501B4010E94B60AFB
:1011B0004B015C010E94D0096B01E12CF12C4AE04B
:1011C000C701B6010E943404C701B6010E94FF099D
:1011D0009B01AC01C501B4010E945E0920E030E032
:1011E00040E251E40E94B60A0E94D00980E090E0FB
:1011F0004AE00E94340484E491E00E941C04F1015E
:101200002491F8018491882399F090E0880F991F28
:10121000FC01E35AFE4FA591B491FC01E559FE4F44
:10122000859194918FB7F8949C91292B2C938FBF23
:1012300080E00E941601209709F4FCCE0E94000075
:10124000F9CEE8E6F1E01382128288EE93E0A0E0A6
:10125000B0E084839583A683B78380E191E0918396
:1012600080838FEF9FEF958784870895A1E21A2EE0
:10127000AA1BBB1BFD010DC0AA1FBB1FEE1FFF1F3A
:10128000A217B307E407F50720F0A21BB30BE40B8A
:10129000F50B661F771F881F991F1A9469F76095D1
:1012A0007095809590959B01AC01BD01CF0108958B
:1012B000EE0FFF1F0590F491E02D09945058BB27C5
:1012C000AA270E9476090C94770A0E94690A38F0CE
:1012D0000E94700A20F039F49F3F19F426F40C9410
:1012E000660A0EF4E095E7FB0C94600AE92F0E9471
:1012F000880A58F3BA17620773078407950720F026
:1013000079F4A6F50C94AA0A0EF4E0950B2EBA2FE8
:10131000A02D0B01B90190010C01CA01A0011124FB
:10132000FF27591B99F0593F50F4503E68F11A16A7
:10133000F040A22F232F342F4427585FF3CF469538
:1013400037952795A795F0405395C9F77EF41F165A
:10135000BA0B620B730B840BBAF09150A1F0FF0F24
:10136000BB1F661F771F881FC2F70EC0BA0F621F10
:10137000731F841F48F4879577956795B795F79500
:101380009E3F08F0B0CF9395880F08F09927EE0F95
:101390009795879508950E943C0A08F481E0089586
:1013A0000E94900A88F09F5798F0B92F9927B7515B
:1013B000B0F0E1F0660F771F881F991F1AF0BA95F9
:1013C000C9F714C0B13091F00E94AA0AB1E00895A3
:1013D0000C94AA0A672F782F8827B85F39F0B93F95
:1013E000CCF3869577956795B395D9F73EF49095AC
:1013F0008095709561957F4F8F4F9F4F0895E8942A
:1014000009C097FB3EF490958095709561957F4F4C
:101410008F4F9F4F9923A9F0F92F96E9BB279395FA
:10142000F695879577956795B795F111F8CFFAF40A
:10143000BB0F11F460FF1BC06F5F7F4F8F4F9F4F3B
:1014400016C0882311F096E911C0772321F09EE899
:10145000872F762F05C0662371F096E8862F70E0FF
:1014600060E02AF09A95660F771F881FDAF7880FD9
:101470009695879597F90895990F0008550FAA0B2F
:10148000E0E8FEEF16161706E807F907C0F0121697
:101490001306E407F50798F0621B730B840B950B9A
:1014A00039F40A2661F0232B242B252B21F40895EF
:1014B0000A2609F4A140A6958FEF811D811D08958C
:1014C00097F99F6780E870E060E008959FEF80ECF7
:1014D000089500240A94161617061806090608959A
:1014E00000240A9412161306140605060895092E00
:1014F0000394000C11F4882352F0BB0F40F4BF2B6F
:1015000011F460FF04C06F5F7F4F8F4F9F4F0895AE
:1015100057FD9058440F551F59F05F3F71F04795A4
:10152000880F97FB991F61F09F3F79F08795089589
:10153000121613061406551FF2CF4695F1DF08C0A8
:10154000161617061806991FF1CF869571056105C5
:1015500008940895E894BB2766277727CB0197F96D
:1015600008950E943C0A08F48FEF08950E94C90A6A
:101570000C94770A0E94690A38F00E94700A20F0E1
:10158000952311F00C94600A0C94660A11240C94B3
:10159000AB0A0E94880A70F3959FC1F3950F50E043
:1015A000551F629FF001729FBB27F00DB11D639F15
:1015B000AA27F00DB11DAA1F649F6627B00DA11DBB
:1015C000661F829F2227B00DA11D621F739FB00D61
:1015D000A11D621F839FA00D611D221F749F3327D1
:1015E000A00D611D231F849F600D211D822F762F6A
:1015F0006A2F11249F5750409AF0F1F088234AF047
:10160000EE0FFF1FBB1F661F771F881F91505040B2
:10161000A9F79E3F510580F00C94600A0C94AB0A28
:101620005F3FE4F3983ED4F3869577956795B79539
:10163000F795E7959F5FC1F7FE2B880F911D969553
:10164000879597F908950E943C0A880B990B089595
:0E16500081E090E0F8940C942D0BF894FFCFFD
:10165E00FFFFFFFF00E1000000000000000000009F
:10166E00AE0295031103CF02ED02C40200C18081C8
:10167E00000000506F776572206F662074686520D9
:10168E0073797374656D3A006E616E00696E6600F3
:08169E006F7666000D0A0000E2
:00000001FF
